{
  "_format": "hh-sol-artifact-1",
  "contractName": "PredictionMarket",
  "sourceName": "contracts/PredictionMarket.sol",
  "abi": [
    {
      "inputs": [
        {
          "internalType": "address",
          "name": "_finder",
          "type": "address"
        },
        {
          "internalType": "address",
          "name": "_currency",
          "type": "address"
        },
        {
          "internalType": "address",
          "name": "_optimisticOracleV3",
          "type": "address"
        }
      ],
      "stateMutability": "nonpayable",
      "type": "constructor"
    },
    {
      "anonymous": false,
      "inputs": [
        {
          "indexed": true,
          "internalType": "bytes32",
          "name": "marketId",
          "type": "bytes32"
        },
        {
          "indexed": false,
          "internalType": "string",
          "name": "assertedOutcome",
          "type": "string"
        },
        {
          "indexed": true,
          "internalType": "bytes32",
          "name": "assertionId",
          "type": "bytes32"
        }
      ],
      "name": "MarketAsserted",
      "type": "event"
    },
    {
      "anonymous": false,
      "inputs": [
        {
          "indexed": true,
          "internalType": "bytes32",
          "name": "marketId",
          "type": "bytes32"
        },
        {
          "indexed": false,
          "internalType": "string",
          "name": "outcome1",
          "type": "string"
        },
        {
          "indexed": false,
          "internalType": "string",
          "name": "outcome2",
          "type": "string"
        },
        {
          "indexed": false,
          "internalType": "string",
          "name": "description",
          "type": "string"
        },
        {
          "indexed": false,
          "internalType": "address",
          "name": "outcome1Token",
          "type": "address"
        },
        {
          "indexed": false,
          "internalType": "address",
          "name": "outcome2Token",
          "type": "address"
        },
        {
          "indexed": false,
          "internalType": "uint256",
          "name": "reward",
          "type": "uint256"
        },
        {
          "indexed": false,
          "internalType": "uint256",
          "name": "requiredBond",
          "type": "uint256"
        }
      ],
      "name": "MarketInitialized",
      "type": "event"
    },
    {
      "anonymous": false,
      "inputs": [
        {
          "indexed": true,
          "internalType": "bytes32",
          "name": "marketId",
          "type": "bytes32"
        }
      ],
      "name": "MarketResolved",
      "type": "event"
    },
    {
      "anonymous": false,
      "inputs": [
        {
          "indexed": true,
          "internalType": "bytes32",
          "name": "marketId",
          "type": "bytes32"
        },
        {
          "indexed": true,
          "internalType": "address",
          "name": "account",
          "type": "address"
        },
        {
          "indexed": false,
          "internalType": "uint256",
          "name": "tokensCreated",
          "type": "uint256"
        }
      ],
      "name": "TokensCreated",
      "type": "event"
    },
    {
      "anonymous": false,
      "inputs": [
        {
          "indexed": true,
          "internalType": "bytes32",
          "name": "marketId",
          "type": "bytes32"
        },
        {
          "indexed": true,
          "internalType": "address",
          "name": "account",
          "type": "address"
        },
        {
          "indexed": false,
          "internalType": "uint256",
          "name": "tokensRedeemed",
          "type": "uint256"
        }
      ],
      "name": "TokensRedeemed",
      "type": "event"
    },
    {
      "anonymous": false,
      "inputs": [
        {
          "indexed": true,
          "internalType": "bytes32",
          "name": "marketId",
          "type": "bytes32"
        },
        {
          "indexed": true,
          "internalType": "address",
          "name": "account",
          "type": "address"
        },
        {
          "indexed": false,
          "internalType": "uint256",
          "name": "payout",
          "type": "uint256"
        },
        {
          "indexed": false,
          "internalType": "uint256",
          "name": "outcome1Tokens",
          "type": "uint256"
        },
        {
          "indexed": false,
          "internalType": "uint256",
          "name": "outcome2Tokens",
          "type": "uint256"
        }
      ],
      "name": "TokensSettled",
      "type": "event"
    },
    {
      "inputs": [
        {
          "internalType": "bytes32",
          "name": "marketId",
          "type": "bytes32"
        },
        {
          "internalType": "string",
          "name": "assertedOutcome",
          "type": "string"
        }
      ],
      "name": "assertMarket",
      "outputs": [
        {
          "internalType": "bytes32",
          "name": "assertionId",
          "type": "bytes32"
        }
      ],
      "stateMutability": "nonpayable",
      "type": "function"
    },
    {
      "inputs": [
        {
          "internalType": "bytes32",
          "name": "",
          "type": "bytes32"
        }
      ],
      "name": "assertedMarkets",
      "outputs": [
        {
          "internalType": "address",
          "name": "asserter",
          "type": "address"
        },
        {
          "internalType": "bytes32",
          "name": "marketId",
          "type": "bytes32"
        }
      ],
      "stateMutability": "view",
      "type": "function"
    },
    {
      "inputs": [
        {
          "internalType": "bytes32",
          "name": "assertionId",
          "type": "bytes32"
        }
      ],
      "name": "assertionDisputedCallback",
      "outputs": [],
      "stateMutability": "nonpayable",
      "type": "function"
    },
    {
      "inputs": [],
      "name": "assertionLiveness",
      "outputs": [
        {
          "internalType": "uint64",
          "name": "",
          "type": "uint64"
        }
      ],
      "stateMutability": "view",
      "type": "function"
    },
    {
      "inputs": [
        {
          "internalType": "bytes32",
          "name": "assertionId",
          "type": "bytes32"
        },
        {
          "internalType": "bool",
          "name": "assertedTruthfully",
          "type": "bool"
        }
      ],
      "name": "assertionResolvedCallback",
      "outputs": [],
      "stateMutability": "nonpayable",
      "type": "function"
    },
    {
      "inputs": [
        {
          "internalType": "bytes32",
          "name": "marketId",
          "type": "bytes32"
        },
        {
          "internalType": "uint256",
          "name": "tokensToCreate",
          "type": "uint256"
        }
      ],
      "name": "createOutcomeTokens",
      "outputs": [],
      "stateMutability": "nonpayable",
      "type": "function"
    },
    {
      "inputs": [],
      "name": "currency",
      "outputs": [
        {
          "internalType": "contract IERC20",
          "name": "",
          "type": "address"
        }
      ],
      "stateMutability": "view",
      "type": "function"
    },
    {
      "inputs": [],
      "name": "defaultIdentifier",
      "outputs": [
        {
          "internalType": "bytes32",
          "name": "",
          "type": "bytes32"
        }
      ],
      "stateMutability": "view",
      "type": "function"
    },
    {
      "inputs": [],
      "name": "finder",
      "outputs": [
        {
          "internalType": "contract FinderInterface",
          "name": "",
          "type": "address"
        }
      ],
      "stateMutability": "view",
      "type": "function"
    },
    {
      "inputs": [
        {
          "internalType": "bytes32",
          "name": "marketId",
          "type": "bytes32"
        }
      ],
      "name": "getMarket",
      "outputs": [
        {
          "components": [
            {
              "internalType": "bool",
              "name": "resolved",
              "type": "bool"
            },
            {
              "internalType": "bytes32",
              "name": "assertedOutcomeId",
              "type": "bytes32"
            },
            {
              "internalType": "contract ExpandedIERC20",
              "name": "outcome1Token",
              "type": "address"
            },
            {
              "internalType": "contract ExpandedIERC20",
              "name": "outcome2Token",
              "type": "address"
            },
            {
              "internalType": "uint256",
              "name": "reward",
              "type": "uint256"
            },
            {
              "internalType": "uint256",
              "name": "requiredBond",
              "type": "uint256"
            },
            {
              "internalType": "bytes",
              "name": "outcome1",
              "type": "bytes"
            },
            {
              "internalType": "bytes",
              "name": "outcome2",
              "type": "bytes"
            },
            {
              "internalType": "bytes",
              "name": "description",
              "type": "bytes"
            }
          ],
          "internalType": "struct PredictionMarket.Market",
          "name": "",
          "type": "tuple"
        }
      ],
      "stateMutability": "view",
      "type": "function"
    },
    {
      "inputs": [
        {
          "internalType": "string",
          "name": "outcome1",
          "type": "string"
        },
        {
          "internalType": "string",
          "name": "outcome2",
          "type": "string"
        },
        {
          "internalType": "string",
          "name": "description",
          "type": "string"
        },
        {
          "internalType": "uint256",
          "name": "reward",
          "type": "uint256"
        },
        {
          "internalType": "uint256",
          "name": "requiredBond",
          "type": "uint256"
        }
      ],
      "name": "initializeMarket",
      "outputs": [
        {
          "internalType": "bytes32",
          "name": "marketId",
          "type": "bytes32"
        }
      ],
      "stateMutability": "nonpayable",
      "type": "function"
    },
    {
      "inputs": [
        {
          "internalType": "bytes32",
          "name": "",
          "type": "bytes32"
        }
      ],
      "name": "markets",
      "outputs": [
        {
          "internalType": "bool",
          "name": "resolved",
          "type": "bool"
        },
        {
          "internalType": "bytes32",
          "name": "assertedOutcomeId",
          "type": "bytes32"
        },
        {
          "internalType": "contract ExpandedIERC20",
          "name": "outcome1Token",
          "type": "address"
        },
        {
          "internalType": "contract ExpandedIERC20",
          "name": "outcome2Token",
          "type": "address"
        },
        {
          "internalType": "uint256",
          "name": "reward",
          "type": "uint256"
        },
        {
          "internalType": "uint256",
          "name": "requiredBond",
          "type": "uint256"
        },
        {
          "internalType": "bytes",
          "name": "outcome1",
          "type": "bytes"
        },
        {
          "internalType": "bytes",
          "name": "outcome2",
          "type": "bytes"
        },
        {
          "internalType": "bytes",
          "name": "description",
          "type": "bytes"
        }
      ],
      "stateMutability": "view",
      "type": "function"
    },
    {
      "inputs": [],
      "name": "oo",
      "outputs": [
        {
          "internalType": "contract OptimisticOracleV3Interface",
          "name": "",
          "type": "address"
        }
      ],
      "stateMutability": "view",
      "type": "function"
    },
    {
      "inputs": [
        {
          "internalType": "bytes32",
          "name": "marketId",
          "type": "bytes32"
        },
        {
          "internalType": "uint256",
          "name": "tokensToRedeem",
          "type": "uint256"
        }
      ],
      "name": "redeemOutcomeTokens",
      "outputs": [],
      "stateMutability": "nonpayable",
      "type": "function"
    },
    {
      "inputs": [
        {
          "internalType": "bytes32",
          "name": "marketId",
          "type": "bytes32"
        }
      ],
      "name": "settleOutcomeTokens",
      "outputs": [
        {
          "internalType": "uint256",
          "name": "payout",
          "type": "uint256"
        }
      ],
      "stateMutability": "nonpayable",
      "type": "function"
    },
    {
      "inputs": [],
      "name": "unresolvable",
      "outputs": [
        {
          "internalType": "bytes",
          "name": "",
          "type": "bytes"
        }
      ],
      "stateMutability": "view",
      "type": "function"
    }
  ],
  "bytecode": "0x6101006040523480156200001257600080fd5b50604051620088973803806200889783398181016040528101906200003891906200033a565b8273ffffffffffffffffffffffffffffffffffffffff1660808173ffffffffffffffffffffffffffffffffffffffff16815250506200007c6200022860201b60201c565b73ffffffffffffffffffffffffffffffffffffffff16633a3ab672836040518263ffffffff1660e01b8152600401620000b69190620003a7565b602060405180830381865afa158015620000d4573d6000803e3d6000fd5b505050506040513d601f19601f82011682018060405250810190620000fa919062000401565b6200013c576040517f08c379a0000000000000000000000000000000000000000000000000000000008152600401620001339062000494565b60405180910390fd5b8173ffffffffffffffffffffffffffffffffffffffff1660a08173ffffffffffffffffffffffffffffffffffffffff16815250508073ffffffffffffffffffffffffffffffffffffffff1660c08173ffffffffffffffffffffffffffffffffffffffff168152505060c05173ffffffffffffffffffffffffffffffffffffffff1663d509b0176040518163ffffffff1660e01b8152600401602060405180830381865afa158015620001f2573d6000803e3d6000fd5b505050506040513d601f19601f82011682018060405250810190620002189190620004f1565b60e0818152505050505062000583565b600060805173ffffffffffffffffffffffffffffffffffffffff1663aafd5e407f436f6c6c61746572616c57686974656c697374000000000000000000000000006040518263ffffffff1660e01b815260040162000287919062000534565b602060405180830381865afa158015620002a5573d6000803e3d6000fd5b505050506040513d601f19601f82011682018060405250810190620002cb919062000551565b905090565b600080fd5b600073ffffffffffffffffffffffffffffffffffffffff82169050919050565b60006200030282620002d5565b9050919050565b6200031481620002f5565b81146200032057600080fd5b50565b600081519050620003348162000309565b92915050565b600080600060608486031215620003565762000355620002d0565b5b6000620003668682870162000323565b9350506020620003798682870162000323565b92505060406200038c8682870162000323565b9150509250925092565b620003a181620002f5565b82525050565b6000602082019050620003be600083018462000396565b92915050565b60008115159050919050565b620003db81620003c4565b8114620003e757600080fd5b50565b600081519050620003fb81620003d0565b92915050565b6000602082840312156200041a5762000419620002d0565b5b60006200042a84828501620003ea565b91505092915050565b600082825260208201905092915050565b7f556e737570706f727465642063757272656e6379000000000000000000000000600082015250565b60006200047c60148362000433565b9150620004898262000444565b602082019050919050565b60006020820190508181036000830152620004af816200046d565b9050919050565b6000819050919050565b620004cb81620004b6565b8114620004d757600080fd5b50565b600081519050620004eb81620004c0565b92915050565b6000602082840312156200050a5762000509620002d0565b5b60006200051a84828501620004da565b91505092915050565b6200052e81620004b6565b82525050565b60006020820190506200054b600083018462000523565b92915050565b6000602082840312156200056a5762000569620002d0565b5b60006200057a8482850162000323565b91505092915050565b60805160a05160c05160e0516182786200061f60003960008181611ee501526123cf0152600081816105cc015281816107a1015281816111fd01528181611f2d015261236901526000818161060801528181610755015281816107c301528181610f18015281816114230152818161157301528181611aee01528181611f090152818161205c01526123ad01526000611b9801526182786000f3fe60806040523480156200001157600080fd5b5060043610620001185760003560e01c8063b75d4e2411620000a5578063d448a4ec116200006f578063d448a4ec1462000332578063d509b0171462000352578063e5a6b10f1462000374578063f1b156b214620003965762000118565b8063b75d4e241462000281578063b9a3c84c14620002a3578063c3c95c7b14620002c5578063d410764514620002fb5762000118565b80638921a61411620000e75780638921a61414620001e95780639d2edf46146200020b5780639d5bacfd146200022b578063acd98e29146200024b5762000118565b80630880c65a146200011d578063565429a8146200013f5780635cb1cc0b14620001755780637564912b14620001ab575b600080fd5b62000127620003b6565b60405162000136919062002a6e565b60405180910390f35b6200015d600480360381019062000157919062002c32565b620003ef565b6040516200016c919062002ca9565b60405180910390f35b6200019360048036038101906200018d919062002d01565b620008ee565b604051620001a2919062002ca9565b60405180910390f35b620001c96004803603810190620001c3919062002de6565b62000fb0565b604051620001e09998979695949392919062002ed1565b60405180910390f35b620001f3620011fb565b60405162000202919062002faa565b60405180910390f35b62000229600480360381019062000223919062002fc7565b6200121f565b005b62000249600480360381019062000243919062002fc7565b620014be565b005b62000269600480360381019062000263919062002de6565b6200175f565b6040516200027891906200300e565b60405180910390f35b6200028b62001b90565b6040516200029a919062003050565b60405180910390f35b620002ad62001b96565b604051620002bc919062003092565b60405180910390f35b620002e36004803603810190620002dd919062002de6565b62001bba565b604051620002f291906200322a565b60405180910390f35b62000319600480360381019062000313919062002de6565b62001e9c565b6040516200032992919062003273565b60405180910390f35b6200035060048036038101906200034a919062002de6565b62001ee0565b005b6200035c62001ee3565b6040516200036b919062002ca9565b60405180910390f35b6200037e62001f07565b6040516200038d9190620032c5565b60405180910390f35b620003b46004803603810190620003ae919062003313565b62001f2b565b005b6040518060400160405280600c81526020017f556e7265736f6c7661626c65000000000000000000000000000000000000000081525081565b6000806000808581526020019081526020016000209050600073ffffffffffffffffffffffffffffffffffffffff168160020160009054906101000a900473ffffffffffffffffffffffffffffffffffffffff1673ffffffffffffffffffffffffffffffffffffffff16036200049c576040517f08c379a00000000000000000000000000000000000000000000000000000000081526004016200049390620033bb565b60405180910390fd5b6000838051906020012090506000801b826001015414620004f4576040517f08c379a0000000000000000000000000000000000000000000000000000000008152600401620004eb906200342d565b60405180910390fd5b8160060160405162000507919062003562565b6040518091039020811480620005365750816007016040516200052b919062003562565b604051809103902081145b806200057d57506040518060400160405280600c81526020017f556e7265736f6c7661626c6500000000000000000000000000000000000000008152508051906020012081145b620005bf576040517f08c379a0000000000000000000000000000000000000000000000000000000008152600401620005b690620035cb565b60405180910390fd5b80826001018190555060007f000000000000000000000000000000000000000000000000000000000000000073ffffffffffffffffffffffffffffffffffffffff16634360af3d7f00000000000000000000000000000000000000000000000000000000000000006040518263ffffffff1660e01b8152600401620006459190620035ed565b602060405180830381865afa15801562000663573d6000803e3d6000fd5b505050506040513d601f19601f8201168201806040525081019062000689919062003621565b9050600081846005015411620006a05781620006a6565b83600501545b905060006200074a87866008018054620006c0906200347e565b80601f0160208091040260200160405190810160405280929190818152602001828054620006ee906200347e565b80156200073f5780601f1062000713576101008083540402835291602001916200073f565b820191906000526020600020905b8154815290600101906020018083116200072157829003601f168201915b505050505062002142565b90506200079b3330847f000000000000000000000000000000000000000000000000000000000000000073ffffffffffffffffffffffffffffffffffffffff166200217c909392919063ffffffff16565b620008087f0000000000000000000000000000000000000000000000000000000000000000837f000000000000000000000000000000000000000000000000000000000000000073ffffffffffffffffffffffffffffffffffffffff16620022099092919063ffffffff16565b62000814818362002365565b955060405180604001604052803373ffffffffffffffffffffffffffffffffffffffff168152602001898152506001600088815260200190815260200160002060008201518160000160006101000a81548173ffffffffffffffffffffffffffffffffffffffff021916908373ffffffffffffffffffffffffffffffffffffffff1602179055506020820151816001015590505085887fc55c01025649b2056980da18d75125fed301d8a2f7cf93d2151fab07bfe2a49289604051620008db91906200369f565b60405180910390a3505050505092915050565b60008086511162000936576040517f08c379a00000000000000000000000000000000000000000000000000000000081526004016200092d9062003713565b60405180910390fd5b60008551116200097d576040517f08c379a0000000000000000000000000000000000000000000000000000000008152600401620009749062003785565b60405180910390fd5b8480519060200120868051906020012003620009d0576040517f08c379a0000000000000000000000000000000000000000000000000000000008152600401620009c790620037f7565b60405180910390fd5b600084511162000a17576040517f08c379a000000000000000000000000000000000000000000000000000000000815260040162000a0e9062003869565b60405180910390fd5b438460405160200162000a2c9291906200388b565b604051602081830303815290604052805190602001209050600073ffffffffffffffffffffffffffffffffffffffff1660008083815260200190815260200160002060020160009054906101000a900473ffffffffffffffffffffffffffffffffffffffff1673ffffffffffffffffffffffffffffffffffffffff161462000aeb576040517f08c379a000000000000000000000000000000000000000000000000000000000815260040162000ae2906200390f565b60405180910390fd5b60008660405160200162000b009190620039c3565b604051602081830303815290604052601260405162000b1f9062002949565b62000b2c92919062003a89565b604051809103906000f08015801562000b49573d6000803e3d6000fd5b50905060008660405160200162000b619190620039c3565b604051602081830303815290604052601260405162000b809062002949565b62000b8d92919062003b22565b604051809103906000f08015801562000baa573d6000803e3d6000fd5b5090508173ffffffffffffffffffffffffffffffffffffffff1663983b2d56306040518263ffffffff1660e01b815260040162000be89190620035ed565b600060405180830381600087803b15801562000c0357600080fd5b505af115801562000c18573d6000803e3d6000fd5b505050508073ffffffffffffffffffffffffffffffffffffffff1663983b2d56306040518263ffffffff1660e01b815260040162000c579190620035ed565b600060405180830381600087803b15801562000c7257600080fd5b505af115801562000c87573d6000803e3d6000fd5b505050508173ffffffffffffffffffffffffffffffffffffffff1663f44637ba306040518263ffffffff1660e01b815260040162000cc69190620035ed565b600060405180830381600087803b15801562000ce157600080fd5b505af115801562000cf6573d6000803e3d6000fd5b505050508073ffffffffffffffffffffffffffffffffffffffff1663f44637ba306040518263ffffffff1660e01b815260040162000d359190620035ed565b600060405180830381600087803b15801562000d5057600080fd5b505af115801562000d65573d6000803e3d6000fd5b505050506040518061012001604052806000151581526020016000801b81526020018373ffffffffffffffffffffffffffffffffffffffff1681526020018273ffffffffffffffffffffffffffffffffffffffff1681526020018681526020018581526020018981526020018881526020018781525060008085815260200190815260200160002060008201518160000160006101000a81548160ff0219169083151502179055506020820151816001015560408201518160020160006101000a81548173ffffffffffffffffffffffffffffffffffffffff021916908373ffffffffffffffffffffffffffffffffffffffff16021790555060608201518160030160006101000a81548173ffffffffffffffffffffffffffffffffffffffff021916908373ffffffffffffffffffffffffffffffffffffffff1602179055506080820151816004015560a0820151816005015560c082015181600601908162000ed0919062003d1e565b5060e082015181600701908162000ee8919062003d1e565b5061010082015181600801908162000f01919062003d1e565b50905050600085111562000f5f5762000f5e3330877f000000000000000000000000000000000000000000000000000000000000000073ffffffffffffffffffffffffffffffffffffffff166200217c909392919063ffffffff16565b5b827f7669fe199a3ccd4081193361fbf7ef7b3e82937c8b39c4ec55af2235be28307189898986868b8b60405162000f9d979695949392919062003e05565b60405180910390a2505095945050505050565b60006020528060005260406000206000915090508060000160009054906101000a900460ff16908060010154908060020160009054906101000a900473ffffffffffffffffffffffffffffffffffffffff16908060030160009054906101000a900473ffffffffffffffffffffffffffffffffffffffff169080600401549080600501549080600601805462001046906200347e565b80601f016020809104026020016040519081016040528092919081815260200182805462001074906200347e565b8015620010c55780601f106200109957610100808354040283529160200191620010c5565b820191906000526020600020905b815481529060010190602001808311620010a757829003601f168201915b505050505090806007018054620010dc906200347e565b80601f01602080910402602001604051908101604052809291908181526020018280546200110a906200347e565b80156200115b5780601f106200112f576101008083540402835291602001916200115b565b820191906000526020600020905b8154815290600101906020018083116200113d57829003601f168201915b50505050509080600801805462001172906200347e565b80601f0160208091040260200160405190810160405280929190818152602001828054620011a0906200347e565b8015620011f15780601f10620011c557610100808354040283529160200191620011f1565b820191906000526020600020905b815481529060010190602001808311620011d357829003601f168201915b5050505050905089565b7f000000000000000000000000000000000000000000000000000000000000000081565b60008060008481526020019081526020016000209050600073ffffffffffffffffffffffffffffffffffffffff168160020160009054906101000a900473ffffffffffffffffffffffffffffffffffffffff1673ffffffffffffffffffffffffffffffffffffffff1603620012cb576040517f08c379a0000000000000000000000000000000000000000000000000000000008152600401620012c290620033bb565b60405180910390fd5b8060020160009054906101000a900473ffffffffffffffffffffffffffffffffffffffff1673ffffffffffffffffffffffffffffffffffffffff166379cc679033846040518363ffffffff1660e01b81526004016200132c92919062003e97565b6020604051808303816000875af11580156200134c573d6000803e3d6000fd5b505050506040513d601f19601f8201168201806040525081019062001372919062003edb565b508060030160009054906101000a900473ffffffffffffffffffffffffffffffffffffffff1673ffffffffffffffffffffffffffffffffffffffff166379cc679033846040518363ffffffff1660e01b8152600401620013d492919062003e97565b6020604051808303816000875af1158015620013f4573d6000803e3d6000fd5b505050506040513d601f19601f820116820180604052508101906200141a919062003edb565b506200146833837f000000000000000000000000000000000000000000000000000000000000000073ffffffffffffffffffffffffffffffffffffffff16620024669092919063ffffffff16565b3373ffffffffffffffffffffffffffffffffffffffff16837f48bc562be531fa6322b3cb3a9333ca19d2e3c63c1793fcb5ce885d02d6e0226e84604051620014b191906200300e565b60405180910390a3505050565b60008060008481526020019081526020016000209050600073ffffffffffffffffffffffffffffffffffffffff168160020160009054906101000a900473ffffffffffffffffffffffffffffffffffffffff1673ffffffffffffffffffffffffffffffffffffffff16036200156a576040517f08c379a00000000000000000000000000000000000000000000000000000000081526004016200156190620033bb565b60405180910390fd5b620015b93330847f000000000000000000000000000000000000000000000000000000000000000073ffffffffffffffffffffffffffffffffffffffff166200217c909392919063ffffffff16565b8060020160009054906101000a900473ffffffffffffffffffffffffffffffffffffffff1673ffffffffffffffffffffffffffffffffffffffff166340c10f1933846040518363ffffffff1660e01b81526004016200161a92919062003e97565b6020604051808303816000875af11580156200163a573d6000803e3d6000fd5b505050506040513d601f19601f8201168201806040525081019062001660919062003edb565b508060030160009054906101000a900473ffffffffffffffffffffffffffffffffffffffff1673ffffffffffffffffffffffffffffffffffffffff166340c10f1933846040518363ffffffff1660e01b8152600401620016c292919062003e97565b6020604051808303816000875af1158015620016e2573d6000803e3d6000fd5b505050506040513d601f19601f8201168201806040525081019062001708919062003edb565b503373ffffffffffffffffffffffffffffffffffffffff16837fa1a00dd4222724941c9d085479758183928d765e55583d239c414b0f09c5da4b846040516200175291906200300e565b60405180910390a3505050565b60008060008084815260200190815260200160002090508060000160009054906101000a900460ff16620017ca576040517f08c379a0000000000000000000000000000000000000000000000000000000008152600401620017c19062003f5d565b60405180910390fd5b60008160020160009054906101000a900473ffffffffffffffffffffffffffffffffffffffff1673ffffffffffffffffffffffffffffffffffffffff166370a08231336040518263ffffffff1660e01b81526004016200182b9190620035ed565b602060405180830381865afa15801562001849573d6000803e3d6000fd5b505050506040513d601f19601f820116820180604052508101906200186f919062003621565b905060008260030160009054906101000a900473ffffffffffffffffffffffffffffffffffffffff1673ffffffffffffffffffffffffffffffffffffffff166370a08231336040518263ffffffff1660e01b8152600401620018d29190620035ed565b602060405180830381865afa158015620018f0573d6000803e3d6000fd5b505050506040513d601f19601f8201168201806040525081019062001916919062003621565b9050826006016040516200192b919062003562565b6040518091039020836001015403620019475781935062001996565b826007016040516200195a919062003562565b6040518091039020836001015403620019765780935062001995565b6002818362001986919062003fae565b62001992919062004018565b93505b5b8260020160009054906101000a900473ffffffffffffffffffffffffffffffffffffffff1673ffffffffffffffffffffffffffffffffffffffff166379cc679033846040518363ffffffff1660e01b8152600401620019f792919062003e97565b6020604051808303816000875af115801562001a17573d6000803e3d6000fd5b505050506040513d601f19601f8201168201806040525081019062001a3d919062003edb565b508260030160009054906101000a900473ffffffffffffffffffffffffffffffffffffffff1673ffffffffffffffffffffffffffffffffffffffff166379cc679033836040518363ffffffff1660e01b815260040162001a9f92919062003e97565b6020604051808303816000875af115801562001abf573d6000803e3d6000fd5b505050506040513d601f19601f8201168201806040525081019062001ae5919062003edb565b5062001b3333857f000000000000000000000000000000000000000000000000000000000000000073ffffffffffffffffffffffffffffffffffffffff16620024669092919063ffffffff16565b3373ffffffffffffffffffffffffffffffffffffffff16857f25ffdbe909949aba86fccc6c8a3f5d94d7ab78bc67a3cc1327908845235874eb86858560405162001b809392919062004050565b60405180910390a3505050919050565b611c2081565b7f000000000000000000000000000000000000000000000000000000000000000081565b62001bc462002957565b600080838152602001908152602001600020604051806101200160405290816000820160009054906101000a900460ff16151515158152602001600182015481526020016002820160009054906101000a900473ffffffffffffffffffffffffffffffffffffffff1673ffffffffffffffffffffffffffffffffffffffff1673ffffffffffffffffffffffffffffffffffffffff1681526020016003820160009054906101000a900473ffffffffffffffffffffffffffffffffffffffff1673ffffffffffffffffffffffffffffffffffffffff1673ffffffffffffffffffffffffffffffffffffffff168152602001600482015481526020016005820154815260200160068201805462001cd9906200347e565b80601f016020809104026020016040519081016040528092919081815260200182805462001d07906200347e565b801562001d585780601f1062001d2c5761010080835404028352916020019162001d58565b820191906000526020600020905b81548152906001019060200180831162001d3a57829003601f168201915b5050505050815260200160078201805462001d73906200347e565b80601f016020809104026020016040519081016040528092919081815260200182805462001da1906200347e565b801562001df25780601f1062001dc65761010080835404028352916020019162001df2565b820191906000526020600020905b81548152906001019060200180831162001dd457829003601f168201915b5050505050815260200160088201805462001e0d906200347e565b80601f016020809104026020016040519081016040528092919081815260200182805462001e3b906200347e565b801562001e8c5780601f1062001e605761010080835404028352916020019162001e8c565b820191906000526020600020905b81548152906001019060200180831162001e6e57829003601f168201915b5050505050815250509050919050565b60016020528060005260406000206000915090508060000160009054906101000a900473ffffffffffffffffffffffffffffffffffffffff16908060010154905082565b50565b7f000000000000000000000000000000000000000000000000000000000000000081565b7f000000000000000000000000000000000000000000000000000000000000000081565b7f000000000000000000000000000000000000000000000000000000000000000073ffffffffffffffffffffffffffffffffffffffff163373ffffffffffffffffffffffffffffffffffffffff161462001fbc576040517f08c379a000000000000000000000000000000000000000000000000000000000815260040162001fb390620040dd565b60405180910390fd5b60008060006001600086815260200190815260200160002060010154815260200190815260200160002090508115620020eb5760018160000160006101000a81548160ff021916908315150217905550600081600401541115620020a257620020a16001600085815260200190815260200160002060000160009054906101000a900473ffffffffffffffffffffffffffffffffffffffff1682600401547f000000000000000000000000000000000000000000000000000000000000000073ffffffffffffffffffffffffffffffffffffffff16620024669092919063ffffffff16565b5b60016000848152602001908152602001600020600101547fe9146184308c5e4b8f243047cc6f81dce88e004d7980502e123b02f887ab514460405160405180910390a2620020f8565b6000801b81600101819055505b60016000848152602001908152602001600020600080820160006101000a81549073ffffffffffffffffffffffffffffffffffffffff021916905560018201600090555050505050565b60606200214f42620024f0565b838360405160200162002165939291906200424c565b604051602081830303815290604052905092915050565b62002203846323b872dd60e01b858585604051602401620021a093929190620042aa565b604051602081830303815290604052907bffffffffffffffffffffffffffffffffffffffffffffffffffffffff19166020820180517bffffffffffffffffffffffffffffffffffffffffffffffffffffffff838183161783525050505062002695565b50505050565b600081148062002299575060008373ffffffffffffffffffffffffffffffffffffffff1663dd62ed3e30856040518363ffffffff1660e01b815260040162002253929190620042e7565b602060405180830381865afa15801562002271573d6000803e3d6000fd5b505050506040513d601f19601f8201168201806040525081019062002297919062003621565b145b620022db576040517f08c379a0000000000000000000000000000000000000000000000000000000008152600401620022d2906200438a565b60405180910390fd5b620023608363095ea7b360e01b8484604051602401620022fd92919062003e97565b604051602081830303815290604052907bffffffffffffffffffffffffffffffffffffffffffffffffffffffff19166020820180517bffffffffffffffffffffffffffffffffffffffffffffffffffffffff838183161783525050505062002695565b505050565b60007f000000000000000000000000000000000000000000000000000000000000000073ffffffffffffffffffffffffffffffffffffffff16636457c9798433306000611c207f0000000000000000000000000000000000000000000000000000000000000000897f00000000000000000000000000000000000000000000000000000000000000006000801b6040518a63ffffffff1660e01b81526004016200241899989796959493929190620043ac565b6020604051808303816000875af115801562002438573d6000803e3d6000fd5b505050506040513d601f19601f820116820180604052508101906200245e919062004469565b905092915050565b620024eb8363a9059cbb60e01b84846040516024016200248892919062003e97565b604051602081830303815290604052907bffffffffffffffffffffffffffffffffffffffffffffffffffffffff19166020820180517bffffffffffffffffffffffffffffffffffffffffffffffffffffffff838183161783525050505062002695565b505050565b60606000820362002539576040518060400160405280600181526020017f3000000000000000000000000000000000000000000000000000000000000000815250905062002690565b600082905060005b600082146200257157808062002557906200449b565b915050600a8262002569919062004018565b915062002541565b60008167ffffffffffffffff81111562002590576200258f62002aeb565b5b6040519080825280601f01601f191660200182016040528015620025c35781602001600182028036833780820191505090505b50905060008290505b600086146200268857600181620025e49190620044e8565b90506000600a8088620025f8919062004018565b62002604919062004523565b87620026119190620044e8565b60306200261f91906200456e565b905060008160f81b90508084848151811062002640576200263f620045aa565b5b60200101907effffffffffffffffffffffffffffffffffffffffffffffffffffffffffffff1916908160001a905350600a886200267e919062004018565b97505050620025cc565b819450505050505b919050565b6000620026f9826040518060400160405280602081526020017f5361666545524332303a206c6f772d6c6576656c2063616c6c206661696c65648152508573ffffffffffffffffffffffffffffffffffffffff16620027649092919063ffffffff16565b90506000815111156200275f57808060200190518101906200271c919062003edb565b6200275e576040517f08c379a000000000000000000000000000000000000000000000000000000000815260040162002755906200464f565b60405180910390fd5b5b505050565b60606200277584846000856200277e565b90509392505050565b606082471015620027c6576040517f08c379a0000000000000000000000000000000000000000000000000000000008152600401620027bd90620046e7565b60405180910390fd5b6000808673ffffffffffffffffffffffffffffffffffffffff168587604051620027f1919062004709565b60006040518083038185875af1925050503d806000811462002830576040519150601f19603f3d011682016040523d82523d6000602084013e62002835565b606091505b5091509150620028488783838762002854565b92505050949350505050565b60608315620028be576000835103620028b5576200287285620028d3565b620028b4576040517f08c379a0000000000000000000000000000000000000000000000000000000008152600401620028ab9062004772565b60405180910390fd5b5b829050620028cb565b620028ca8383620028f6565b5b949350505050565b6000808273ffffffffffffffffffffffffffffffffffffffff163b119050919050565b6000825111156200290a5781518083602001fd5b806040517f08c379a00000000000000000000000000000000000000000000000000000000081526004016200294091906200369f565b60405180910390fd5b613aae806200479583390190565b60405180610120016040528060001515815260200160008019168152602001600073ffffffffffffffffffffffffffffffffffffffff168152602001600073ffffffffffffffffffffffffffffffffffffffff16815260200160008152602001600081526020016060815260200160608152602001606081525090565b600081519050919050565b600082825260208201905092915050565b60005b8381101562002a10578082015181840152602081019050620029f3565b60008484015250505050565b6000601f19601f8301169050919050565b600062002a3a82620029d4565b62002a468185620029df565b935062002a58818560208601620029f0565b62002a638162002a1c565b840191505092915050565b6000602082019050818103600083015262002a8a818462002a2d565b905092915050565b6000604051905090565b600080fd5b600080fd5b6000819050919050565b62002abb8162002aa6565b811462002ac757600080fd5b50565b60008135905062002adb8162002ab0565b92915050565b600080fd5b600080fd5b7f4e487b7100000000000000000000000000000000000000000000000000000000600052604160045260246000fd5b62002b258262002a1c565b810181811067ffffffffffffffff8211171562002b475762002b4662002aeb565b5b80604052505050565b600062002b5c62002a92565b905062002b6a828262002b1a565b919050565b600067ffffffffffffffff82111562002b8d5762002b8c62002aeb565b5b62002b988262002a1c565b9050602081019050919050565b82818337600083830152505050565b600062002bcb62002bc58462002b6f565b62002b50565b90508281526020810184848401111562002bea5762002be962002ae6565b5b62002bf784828562002ba5565b509392505050565b600082601f83011262002c175762002c1662002ae1565b5b813562002c2984826020860162002bb4565b91505092915050565b6000806040838503121562002c4c5762002c4b62002a9c565b5b600062002c5c8582860162002aca565b925050602083013567ffffffffffffffff81111562002c805762002c7f62002aa1565b5b62002c8e8582860162002bff565b9150509250929050565b62002ca38162002aa6565b82525050565b600060208201905062002cc0600083018462002c98565b92915050565b6000819050919050565b62002cdb8162002cc6565b811462002ce757600080fd5b50565b60008135905062002cfb8162002cd0565b92915050565b600080600080600060a0868803121562002d205762002d1f62002a9c565b5b600086013567ffffffffffffffff81111562002d415762002d4062002aa1565b5b62002d4f8882890162002bff565b955050602086013567ffffffffffffffff81111562002d735762002d7262002aa1565b5b62002d818882890162002bff565b945050604086013567ffffffffffffffff81111562002da55762002da462002aa1565b5b62002db38882890162002bff565b935050606062002dc68882890162002cea565b925050608062002dd98882890162002cea565b9150509295509295909350565b60006020828403121562002dff5762002dfe62002a9c565b5b600062002e0f8482850162002aca565b91505092915050565b60008115159050919050565b62002e2f8162002e18565b82525050565b600073ffffffffffffffffffffffffffffffffffffffff82169050919050565b6000819050919050565b600062002e8062002e7a62002e748462002e35565b62002e55565b62002e35565b9050919050565b600062002e948262002e5f565b9050919050565b600062002ea88262002e87565b9050919050565b62002eba8162002e9b565b82525050565b62002ecb8162002cc6565b82525050565b60006101208201905062002ee9600083018c62002e24565b62002ef8602083018b62002c98565b62002f07604083018a62002eaf565b62002f16606083018962002eaf565b62002f25608083018862002ec0565b62002f3460a083018762002ec0565b81810360c083015262002f48818662002a2d565b905081810360e083015262002f5e818562002a2d565b905081810361010083015262002f75818462002a2d565b90509a9950505050505050505050565b600062002f928262002e87565b9050919050565b62002fa48162002f85565b82525050565b600060208201905062002fc1600083018462002f99565b92915050565b6000806040838503121562002fe15762002fe062002a9c565b5b600062002ff18582860162002aca565b9250506020620030048582860162002cea565b9150509250929050565b600060208201905062003025600083018462002ec0565b92915050565b600067ffffffffffffffff82169050919050565b6200304a816200302b565b82525050565b60006020820190506200306760008301846200303f565b92915050565b60006200307a8262002e87565b9050919050565b6200308c816200306d565b82525050565b6000602082019050620030a9600083018462003081565b92915050565b620030ba8162002e18565b82525050565b620030cb8162002aa6565b82525050565b620030dc8162002e9b565b82525050565b620030ed8162002cc6565b82525050565b600082825260208201905092915050565b60006200311182620029d4565b6200311d8185620030f3565b93506200312f818560208601620029f0565b6200313a8162002a1c565b840191505092915050565b600061012083016000830151620031606000860182620030af565b506020830151620031756020860182620030c0565b5060408301516200318a6040860182620030d1565b5060608301516200319f6060860182620030d1565b506080830151620031b46080860182620030e2565b5060a0830151620031c960a0860182620030e2565b5060c083015184820360c0860152620031e3828262003104565b91505060e083015184820360e0860152620031ff828262003104565b9150506101008301518482036101008601526200321d828262003104565b9150508091505092915050565b6000602082019050818103600083015262003246818462003145565b905092915050565b60006200325b8262002e35565b9050919050565b6200326d816200324e565b82525050565b60006040820190506200328a600083018562003262565b62003299602083018462002c98565b9392505050565b6000620032ad8262002e87565b9050919050565b620032bf81620032a0565b82525050565b6000602082019050620032dc6000830184620032b4565b92915050565b620032ed8162002e18565b8114620032f957600080fd5b50565b6000813590506200330d81620032e2565b92915050565b600080604083850312156200332d576200332c62002a9c565b5b60006200333d8582860162002aca565b92505060206200335085828601620032fc565b9150509250929050565b600082825260208201905092915050565b7f4d61726b657420646f6573206e6f742065786973740000000000000000000000600082015250565b6000620033a36015836200335a565b9150620033b0826200336b565b602082019050919050565b60006020820190508181036000830152620033d68162003394565b9050919050565b7f417373657274696f6e20616374697665206f72207265736f6c76656400000000600082015250565b600062003415601c836200335a565b91506200342282620033dd565b602082019050919050565b60006020820190508181036000830152620034488162003406565b9050919050565b7f4e487b7100000000000000000000000000000000000000000000000000000000600052602260045260246000fd5b600060028204905060018216806200349757607f821691505b602082108103620034ad57620034ac6200344f565b5b50919050565b600081905092915050565b60008190508160005260206000209050919050565b60008154620034e2816200347e565b620034ee8186620034b3565b945060018216600081146200350c5760018114620035225762003559565b60ff198316865281151582028601935062003559565b6200352d85620034be565b60005b83811015620035515781548189015260018201915060208101905062003530565b838801955050505b50505092915050565b6000620035708284620034d3565b915081905092915050565b7f496e76616c6964206173736572746564206f7574636f6d650000000000000000600082015250565b6000620035b36018836200335a565b9150620035c0826200357b565b602082019050919050565b60006020820190508181036000830152620035e681620035a4565b9050919050565b600060208201905062003604600083018462003262565b92915050565b6000815190506200361b8162002cd0565b92915050565b6000602082840312156200363a576200363962002a9c565b5b60006200364a848285016200360a565b91505092915050565b600081519050919050565b60006200366b8262003653565b6200367781856200335a565b935062003689818560208601620029f0565b620036948162002a1c565b840191505092915050565b60006020820190508181036000830152620036bb81846200365e565b905092915050565b7f456d707479206669727374206f7574636f6d6500000000000000000000000000600082015250565b6000620036fb6013836200335a565b91506200370882620036c3565b602082019050919050565b600060208201905081810360008301526200372e81620036ec565b9050919050565b7f456d707479207365636f6e64206f7574636f6d65000000000000000000000000600082015250565b60006200376d6014836200335a565b91506200377a8262003735565b602082019050919050565b60006020820190508181036000830152620037a0816200375e565b9050919050565b7f4f7574636f6d657320617265207468652073616d650000000000000000000000600082015250565b6000620037df6015836200335a565b9150620037ec82620037a7565b602082019050919050565b600060208201905081810360008301526200381281620037d0565b9050919050565b7f456d707479206465736372697074696f6e000000000000000000000000000000600082015250565b6000620038516011836200335a565b91506200385e8262003819565b602082019050919050565b60006020820190508181036000830152620038848162003842565b9050919050565b6000604082019050620038a2600083018562002ec0565b8181036020830152620038b681846200365e565b90509392505050565b7f4d61726b657420616c7265616479206578697374730000000000000000000000600082015250565b6000620038f76015836200335a565b91506200390482620038bf565b602082019050919050565b600060208201905081810360008301526200392a81620038e8565b9050919050565b600081905092915050565b6000620039498262003653565b62003955818562003931565b935062003967818560208601620029f0565b80840191505092915050565b7f20546f6b656e0000000000000000000000000000000000000000000000000000600082015250565b6000620039ab60068362003931565b9150620039b88262003973565b600682019050919050565b6000620039d182846200393c565b9150620039de826200399c565b915081905092915050565b7f4f31540000000000000000000000000000000000000000000000000000000000600082015250565b600062003a216003836200335a565b915062003a2e82620039e9565b602082019050919050565b6000819050919050565b600060ff82169050919050565b600062003a7162003a6b62003a658462003a39565b62002e55565b62003a43565b9050919050565b62003a838162003a50565b82525050565b6000606082019050818103600083015262003aa581856200365e565b9050818103602083015262003aba8162003a12565b905062003acb604083018462003a78565b9392505050565b7f4f32540000000000000000000000000000000000000000000000000000000000600082015250565b600062003b0a6003836200335a565b915062003b178262003ad2565b602082019050919050565b6000606082019050818103600083015262003b3e81856200365e565b9050818103602083015262003b538162003afb565b905062003b64604083018462003a78565b9392505050565b60006020601f8301049050919050565b600082821b905092915050565b60006008830262003bba7fffffffffffffffffffffffffffffffffffffffffffffffffffffffffffffffff8262003b7b565b62003bc6868362003b7b565b95508019841693508086168417925050509392505050565b600062003bff62003bf962003bf38462002cc6565b62002e55565b62002cc6565b9050919050565b6000819050919050565b62003c1b8362003bde565b62003c3362003c2a8262003c06565b84845462003b88565b825550505050565b600090565b62003c4a62003c3b565b62003c5781848462003c10565b505050565b5b8181101562003c7f5762003c7360008262003c40565b60018101905062003c5d565b5050565b601f82111562003cce5762003c9881620034be565b62003ca38462003b6b565b8101602085101562003cb3578190505b62003ccb62003cc28562003b6b565b83018262003c5c565b50505b505050565b600082821c905092915050565b600062003cf36000198460080262003cd3565b1980831691505092915050565b600062003d0e838362003ce0565b9150826002028217905092915050565b62003d2982620029d4565b67ffffffffffffffff81111562003d455762003d4462002aeb565b5b62003d5182546200347e565b62003d5e82828562003c83565b600060209050601f83116001811462003d96576000841562003d81578287015190505b62003d8d858262003d00565b86555062003dfd565b601f19841662003da686620034be565b60005b8281101562003dd05784890151825560018201915060208501945060208101905062003da9565b8683101562003df0578489015162003dec601f89168262003ce0565b8355505b6001600288020188555050505b505050505050565b600060e082019050818103600083015262003e21818a6200365e565b9050818103602083015262003e3781896200365e565b9050818103604083015262003e4d81886200365e565b905062003e5e606083018762003262565b62003e6d608083018662003262565b62003e7c60a083018562002ec0565b62003e8b60c083018462002ec0565b98975050505050505050565b600060408201905062003eae600083018562003262565b62003ebd602083018462002ec0565b9392505050565b60008151905062003ed581620032e2565b92915050565b60006020828403121562003ef45762003ef362002a9c565b5b600062003f048482850162003ec4565b91505092915050565b7f4d61726b6574206e6f74207265736f6c76656400000000000000000000000000600082015250565b600062003f456013836200335a565b915062003f528262003f0d565b602082019050919050565b6000602082019050818103600083015262003f788162003f36565b9050919050565b7f4e487b7100000000000000000000000000000000000000000000000000000000600052601160045260246000fd5b600062003fbb8262002cc6565b915062003fc88362002cc6565b925082820190508082111562003fe35762003fe262003f7f565b5b92915050565b7f4e487b7100000000000000000000000000000000000000000000000000000000600052601260045260246000fd5b6000620040258262002cc6565b9150620040328362002cc6565b92508262004045576200404462003fe9565b5b828204905092915050565b600060608201905062004067600083018662002ec0565b62004076602083018562002ec0565b62004085604083018462002ec0565b949350505050565b7f4e6f7420617574686f72697a6564000000000000000000000000000000000000600082015250565b6000620040c5600e836200335a565b9150620040d2826200408d565b602082019050919050565b60006020820190508181036000830152620040f881620040b6565b9050919050565b7f4173206f6620617373657274696f6e2074696d657374616d7020000000000000600082015250565b600062004137601a8362003931565b91506200414482620040ff565b601a82019050919050565b60006200415c82620029d4565b620041688185620034b3565b93506200417a818560208601620029f0565b80840191505092915050565b7f2c20746865206465736372696265642070726564696374696f6e206d61726b6560008201527f74206f7574636f6d652069733a20000000000000000000000000000000000000602082015250565b6000620041e4602e8362003931565b9150620041f18262004186565b602e82019050919050565b7f2e20546865206d61726b6574206465736372697074696f6e2069733a20000000600082015250565b600062004234601d8362003931565b91506200424182620041fc565b601d82019050919050565b6000620042598262004128565b91506200426782866200414f565b91506200427482620041d5565b91506200428282856200393c565b91506200428f8262004225565b91506200429d82846200414f565b9150819050949350505050565b6000606082019050620042c1600083018662003262565b620042d0602083018562003262565b620042df604083018462002ec0565b949350505050565b6000604082019050620042fe600083018562003262565b6200430d602083018462003262565b9392505050565b7f5361666545524332303a20617070726f76652066726f6d206e6f6e2d7a65726f60008201527f20746f206e6f6e2d7a65726f20616c6c6f77616e636500000000000000000000602082015250565b6000620043726036836200335a565b91506200437f8262004314565b604082019050919050565b60006020820190508181036000830152620043a58162004363565b9050919050565b6000610120820190508181036000830152620043c9818c62002a2d565b9050620043da602083018b62003262565b620043e9604083018a62003262565b620043f8606083018962003262565b6200440760808301886200303f565b6200441660a0830187620032b4565b6200442560c083018662002ec0565b6200443460e083018562002c98565b6200444461010083018462002c98565b9a9950505050505050505050565b600081519050620044638162002ab0565b92915050565b60006020828403121562004482576200448162002a9c565b5b6000620044928482850162004452565b91505092915050565b6000620044a88262002cc6565b91507fffffffffffffffffffffffffffffffffffffffffffffffffffffffffffffffff8203620044dd57620044dc62003f7f565b5b600182019050919050565b6000620044f58262002cc6565b9150620045028362002cc6565b92508282039050818111156200451d576200451c62003f7f565b5b92915050565b6000620045308262002cc6565b91506200453d8362002cc6565b92508282026200454d8162002cc6565b9150828204841483151762004567576200456662003f7f565b5b5092915050565b60006200457b8262003a43565b9150620045888362003a43565b9250828201905060ff811115620045a457620045a362003f7f565b5b92915050565b7f4e487b7100000000000000000000000000000000000000000000000000000000600052603260045260246000fd5b7f5361666545524332303a204552433230206f7065726174696f6e20646964206e60008201527f6f74207375636365656400000000000000000000000000000000000000000000602082015250565b600062004637602a836200335a565b91506200464482620045d9565b604082019050919050565b600060208201905081810360008301526200466a8162004628565b9050919050565b7f416464726573733a20696e73756666696369656e742062616c616e636520666f60008201527f722063616c6c0000000000000000000000000000000000000000000000000000602082015250565b6000620046cf6026836200335a565b9150620046dc8262004671565b604082019050919050565b600060208201905081810360008301526200470281620046c0565b9050919050565b60006200471782846200414f565b915081905092915050565b7f416464726573733a2063616c6c20746f206e6f6e2d636f6e7472616374000000600082015250565b60006200475a601d836200335a565b9150620047678262004722565b602082019050919050565b600060208201905081810360008301526200478d816200474b565b905091905056fe60806040523480156200001157600080fd5b5060405162003aae38038062003aae8339818101604052810190620000379190620008d6565b828281600390816200004a919062000bbb565b5080600490816200005c919062000bbb565b50505080600660006101000a81548160ff021916908360ff160217905550620000b96000600281111562000095576200009462000ca2565b5b60006002811115620000ac57620000ab62000ca2565b5b33620001d960201b60201c565b6200014560016002811115620000d457620000d362000ca2565b5b60006002811115620000eb57620000ea62000ca2565b5b600067ffffffffffffffff81111562000109576200010862000734565b5b604051908082528060200260200182016040528015620001385781602001602082028036833780820191505090505b506200037460201b60201c565b620001d06002808111156200015f576200015e62000ca2565b5b6000600281111562000176576200017562000ca2565b5b600067ffffffffffffffff81111562000194576200019362000734565b5b604051908082528060200260200182016040528015620001c35781602001602082028036833780820191505090505b506200037460201b60201c565b50505062001039565b8260006002811115620001f157620001f062000ca2565b5b6005600083815260200190815260200160002060010160009054906101000a900460ff1660028111156200022a576200022962000ca2565b5b146200026d576040517f08c379a0000000000000000000000000000000000000000000000000000000008152600401620002649062000d32565b60405180910390fd5b600060056000868152602001908152602001600020905060018160010160006101000a81548160ff02191690836002811115620002af57620002ae62000ca2565b5b0217905550838160000181905550620002da83826002016200050f60201b620011181790919060201c565b60006002811115620002f157620002f062000ca2565b5b6005600086815260200190815260200160002060010160009054906101000a900460ff1660028111156200032a576200032962000ca2565b5b036200036d576040517f08c379a0000000000000000000000000000000000000000000000000000000008152600401620003649062000dca565b60405180910390fd5b5050505050565b82600060028111156200038c576200038b62000ca2565b5b6005600083815260200190815260200160002060010160009054906101000a900460ff166002811115620003c557620003c462000ca2565b5b1462000408576040517f08c379a0000000000000000000000000000000000000000000000000000000008152600401620003ff9062000d32565b60405180910390fd5b600060056000868152602001908152602001600020905060028160010160006101000a81548160ff021916908360028111156200044a576200044962000ca2565b5b02179055508381600001819055506200047583826003016200052560201b620011261790919060201c565b600060028111156200048c576200048b62000ca2565b5b6005600086815260200190815260200160002060010160009054906101000a900460ff166002811115620004c557620004c462000ca2565b5b0362000508576040517f08c379a0000000000000000000000000000000000000000000000000000000008152600401620004ff9062000e62565b60405180910390fd5b5050505050565b6200052182826200057c60201b60201c565b5050565b60005b8151811015620005775762000561838383815181106200054d576200054c62000e84565b5b60200260200101516200063560201b60201c565b80806200056e9062000ee2565b91505062000528565b505050565b600073ffffffffffffffffffffffffffffffffffffffff168173ffffffffffffffffffffffffffffffffffffffff1603620005ee576040517f08c379a0000000000000000000000000000000000000000000000000000000008152600401620005e59062000fa5565b60405180910390fd5b808260000160006101000a81548173ffffffffffffffffffffffffffffffffffffffff021916908373ffffffffffffffffffffffffffffffffffffffff1602179055505050565b600073ffffffffffffffffffffffffffffffffffffffff168173ffffffffffffffffffffffffffffffffffffffff1603620006a7576040517f08c379a00000000000000000000000000000000000000000000000000000000081526004016200069e9062001017565b60405180910390fd5b60018260000160008373ffffffffffffffffffffffffffffffffffffffff1673ffffffffffffffffffffffffffffffffffffffff16815260200190815260200160002060006101000a81548160ff0219169083151502179055505050565b6000604051905090565b600080fd5b600080fd5b600080fd5b600080fd5b6000601f19601f8301169050919050565b7f4e487b7100000000000000000000000000000000000000000000000000000000600052604160045260246000fd5b6200076e8262000723565b810181811067ffffffffffffffff8211171562000790576200078f62000734565b5b80604052505050565b6000620007a562000705565b9050620007b3828262000763565b919050565b600067ffffffffffffffff821115620007d657620007d562000734565b5b620007e18262000723565b9050602081019050919050565b60005b838110156200080e578082015181840152602081019050620007f1565b60008484015250505050565b6000620008316200082b84620007b8565b62000799565b90508281526020810184848401111562000850576200084f6200071e565b5b6200085d848285620007ee565b509392505050565b600082601f8301126200087d576200087c62000719565b5b81516200088f8482602086016200081a565b91505092915050565b600060ff82169050919050565b620008b08162000898565b8114620008bc57600080fd5b50565b600081519050620008d081620008a5565b92915050565b600080600060608486031215620008f257620008f16200070f565b5b600084015167ffffffffffffffff81111562000913576200091262000714565b5b620009218682870162000865565b935050602084015167ffffffffffffffff81111562000945576200094462000714565b5b620009538682870162000865565b92505060406200096686828701620008bf565b9150509250925092565b600081519050919050565b7f4e487b7100000000000000000000000000000000000000000000000000000000600052602260045260246000fd5b60006002820490506001821680620009c357607f821691505b602082108103620009d957620009d86200097b565b5b50919050565b60008190508160005260206000209050919050565b60006020601f8301049050919050565b600082821b905092915050565b60006008830262000a437fffffffffffffffffffffffffffffffffffffffffffffffffffffffffffffffff8262000a04565b62000a4f868362000a04565b95508019841693508086168417925050509392505050565b6000819050919050565b6000819050919050565b600062000a9c62000a9662000a908462000a67565b62000a71565b62000a67565b9050919050565b6000819050919050565b62000ab88362000a7b565b62000ad062000ac78262000aa3565b84845462000a11565b825550505050565b600090565b62000ae762000ad8565b62000af481848462000aad565b505050565b5b8181101562000b1c5762000b1060008262000add565b60018101905062000afa565b5050565b601f82111562000b6b5762000b3581620009df565b62000b4084620009f4565b8101602085101562000b50578190505b62000b6862000b5f85620009f4565b83018262000af9565b50505b505050565b600082821c905092915050565b600062000b906000198460080262000b70565b1980831691505092915050565b600062000bab838362000b7d565b9150826002028217905092915050565b62000bc68262000970565b67ffffffffffffffff81111562000be25762000be162000734565b5b62000bee8254620009aa565b62000bfb82828562000b20565b600060209050601f83116001811462000c33576000841562000c1e578287015190505b62000c2a858262000b9d565b86555062000c9a565b601f19841662000c4386620009df565b60005b8281101562000c6d5784890151825560018201915060208501945060208101905062000c46565b8683101562000c8d578489015162000c89601f89168262000b7d565b8355505b6001600288020188555050505b505050505050565b7f4e487b7100000000000000000000000000000000000000000000000000000000600052602160045260246000fd5b600082825260208201905092915050565b7f43616e6e6f74207573652061207072652d6578697374696e6720726f6c650000600082015250565b600062000d1a601e8362000cd1565b915062000d278262000ce2565b602082019050919050565b6000602082019050818103600083015262000d4d8162000d0b565b9050919050565b7f417474656d7074656420746f2075736520616e20696e76616c696420726f6c6560008201527f20746f206d616e61676520616e206578636c757369766520726f6c6500000000602082015250565b600062000db2603c8362000cd1565b915062000dbf8262000d54565b604082019050919050565b6000602082019050818103600083015262000de58162000da3565b9050919050565b7f417474656d7074656420746f2075736520616e20696e76616c696420726f6c6560008201527f20746f206d616e61676520612073686172656420726f6c650000000000000000602082015250565b600062000e4a60388362000cd1565b915062000e578262000dec565b604082019050919050565b6000602082019050818103600083015262000e7d8162000e3b565b9050919050565b7f4e487b7100000000000000000000000000000000000000000000000000000000600052603260045260246000fd5b7f4e487b7100000000000000000000000000000000000000000000000000000000600052601160045260246000fd5b600062000eef8262000a67565b91507fffffffffffffffffffffffffffffffffffffffffffffffffffffffffffffffff820362000f245762000f2362000eb3565b5b600182019050919050565b7f43616e6e6f742073657420616e206578636c757369766520726f6c6520746f2060008201527f3078300000000000000000000000000000000000000000000000000000000000602082015250565b600062000f8d60238362000cd1565b915062000f9a8262000f2f565b604082019050919050565b6000602082019050818103600083015262000fc08162000f7e565b9050919050565b7f43616e6e6f74206164642030783020746f20612073686172656420726f6c6500600082015250565b600062000fff601f8362000cd1565b91506200100c8262000fc7565b602082019050919050565b60006020820190508181036000830152620010328162000ff0565b9050919050565b612a6580620010496000396000f3fe608060405234801561001057600080fd5b506004361061014d5760003560e01c806374d0a676116100c3578063a9059cbb1161007c578063a9059cbb146103d6578063aaa14ca314610406578063ab3545e514610422578063d97c05be14610452578063dd62ed3e1461046e578063f44637ba1461049e5761014d565b806374d0a676146102f057806379cc67901461030c5780637cdc1cb91461033c57806395d89b411461036c578063983b2d561461038a578063a457c2d7146103a65761014d565b80633950935111610115578063395093511461020c57806340c10f191461023c57806342966c681461026c5780636be7658b1461028857806370a08231146102a457806373cc802a146102d45761014d565b806306fdde0314610152578063095ea7b31461017057806318160ddd146101a057806323b872dd146101be578063313ce567146101ee575b600080fd5b61015a6104ba565b6040516101679190611cc3565b60405180910390f35b61018a60048036038101906101859190611d7e565b61054c565b6040516101979190611dd9565b60405180910390f35b6101a861056f565b6040516101b59190611e03565b60405180910390f35b6101d860048036038101906101d39190611e1e565b610579565b6040516101e59190611dd9565b60405180910390f35b6101f66105a8565b6040516102039190611e8d565b60405180910390f35b61022660048036038101906102219190611d7e565b6105bf565b6040516102339190611dd9565b60405180910390f35b61025660048036038101906102519190611d7e565b6105f6565b6040516102639190611dd9565b60405180910390f35b61028660048036038101906102819190611ea8565b61066a565b005b6102a2600480360381019061029d9190611ed5565b6106d4565b005b6102be60048036038101906102b99190611f15565b610847565b6040516102cb9190611e03565b60405180910390f35b6102ee60048036038101906102e99190611f15565b61088f565b005b61030a60048036038101906103059190611ed5565b6108af565b005b61032660048036038101906103219190611d7e565b610a22565b6040516103339190611dd9565b60405180910390f35b61035660048036038101906103519190611ed5565b610a95565b6040516103639190611dd9565b60405180910390f35b610374610ba3565b6040516103819190611cc3565b60405180910390f35b6103a4600480360381019061039f9190611f15565b610c35565b005b6103c060048036038101906103bb9190611d7e565b610c55565b6040516103cd9190611dd9565b60405180910390f35b6103f060048036038101906103eb9190611d7e565b610ccc565b6040516103fd9190611dd9565b60405180910390f35b610420600480360381019061041b9190611ea8565b610cef565b005b61043c60048036038101906104379190611ea8565b610e4b565b6040516104499190611f51565b60405180910390f35b61046c60048036038101906104679190611ed5565b610efe565b005b61048860048036038101906104839190611f6c565b611072565b6040516104959190611e03565b60405180910390f35b6104b860048036038101906104b39190611f15565b6110f9565b005b6060600380546104c990611fdb565b80601f01602080910402602001604051908101604052809291908181526020018280546104f590611fdb565b80156105425780601f1061051757610100808354040283529160200191610542565b820191906000526020600020905b81548152906001019060200180831161052557829003601f168201915b5050505050905090565b60008061055761116e565b9050610564818585611176565b600191505092915050565b6000600254905090565b60008061058461116e565b905061059185828561133f565b61059c8585856113cb565b60019150509392505050565b6000600660009054906101000a900460ff16905090565b6000806105ca61116e565b90506105eb8185856105dc8589611072565b6105e6919061203b565b611176565b600191505092915050565b60006001600281111561060c5761060b61206f565b5b6106168133610a95565b610655576040517f08c379a000000000000000000000000000000000000000000000000000000000815260040161064c90612110565b60405180910390fd5b61065f8484611641565b600191505092915050565b60028081111561067d5761067c61206f565b5b6106878133610a95565b6106c6576040517f08c379a00000000000000000000000000000000000000000000000000000000081526004016106bd90612110565b60405180910390fd5b6106d03383611797565b5050565b816002808111156106e8576106e761206f565b5b6005600083815260200190815260200160002060010160009054906101000a900460ff16600281111561071e5761071d61206f565b5b1461075e576040517f08c379a0000000000000000000000000000000000000000000000000000000008152600401610755906121a2565b60405180910390fd5b8261077f600560008381526020019081526020016000206000015433610a95565b6107be576040517f08c379a00000000000000000000000000000000000000000000000000000000081526004016107b590612234565b60405180910390fd5b6107e6836005600087815260200190815260200160002060030161196490919063ffffffff16565b3373ffffffffffffffffffffffffffffffffffffffff168373ffffffffffffffffffffffffffffffffffffffff16857feb3e33034c392e69263b04ec0fa376dc12784a41b6676c7f31b936cbc0fbb5af60405160405180910390a450505050565b60008060008373ffffffffffffffffffffffffffffffffffffffff1673ffffffffffffffffffffffffffffffffffffffff168152602001908152602001600020549050919050565b6108ac600060028111156108a6576108a561206f565b5b82610efe565b50565b816002808111156108c3576108c261206f565b5b6005600083815260200190815260200160002060010160009054906101000a900460ff1660028111156108f9576108f861206f565b5b14610939576040517f08c379a0000000000000000000000000000000000000000000000000000000008152600401610930906121a2565b60405180910390fd5b8261095a600560008381526020019081526020016000206000015433610a95565b610999576040517f08c379a000000000000000000000000000000000000000000000000000000000815260040161099090612234565b60405180910390fd5b6109c183600560008781526020019081526020016000206003016119c290919063ffffffff16565b3373ffffffffffffffffffffffffffffffffffffffff168373ffffffffffffffffffffffffffffffffffffffff16857f63502af7324ff6db91ab38f8236a648727d9385ea6c782073dd4882d8a61a48f60405160405180910390a450505050565b6000600280811115610a3757610a3661206f565b5b610a418133610a95565b610a80576040517f08c379a0000000000000000000000000000000000000000000000000000000008152600401610a7790612110565b60405180910390fd5b610a8a8484611797565b600191505092915050565b60008060056000858152602001908152602001600020905060016002811115610ac157610ac061206f565b5b8160010160009054906101000a900460ff166002811115610ae557610ae461206f565b5b03610b0857610b008382600201611a8f90919063ffffffff16565b915050610b9d565b600280811115610b1b57610b1a61206f565b5b8160010160009054906101000a900460ff166002811115610b3f57610b3e61206f565b5b03610b6257610b5a8382600301611aec90919063ffffffff16565b915050610b9d565b6040517f08c379a0000000000000000000000000000000000000000000000000000000008152600401610b94906122a0565b60405180910390fd5b92915050565b606060048054610bb290611fdb565b80601f0160208091040260200160405190810160405280929190818152602001828054610bde90611fdb565b8015610c2b5780601f10610c0057610100808354040283529160200191610c2b565b820191906000526020600020905b815481529060010190602001808311610c0e57829003601f168201915b5050505050905090565b610c5260016002811115610c4c57610c4b61206f565b5b826108af565b50565b600080610c6061116e565b90506000610c6e8286611072565b905083811015610cb3576040517f08c379a0000000000000000000000000000000000000000000000000000000008152600401610caa90612332565b60405180910390fd5b610cc08286868403611176565b60019250505092915050565b600080610cd761116e565b9050610ce48185856113cb565b600191505092915050565b80600280811115610d0357610d0261206f565b5b6005600083815260200190815260200160002060010160009054906101000a900460ff166002811115610d3957610d3861206f565b5b14610d79576040517f08c379a0000000000000000000000000000000000000000000000000000000008152600401610d70906121a2565b60405180910390fd5b81610d848133610a95565b610dc3576040517f08c379a0000000000000000000000000000000000000000000000000000000008152600401610dba90612110565b60405180910390fd5b610deb336005600086815260200190815260200160002060030161196490919063ffffffff16565b3373ffffffffffffffffffffffffffffffffffffffff163373ffffffffffffffffffffffffffffffffffffffff16847feb3e33034c392e69263b04ec0fa376dc12784a41b6676c7f31b936cbc0fbb5af60405160405180910390a4505050565b60008160016002811115610e6257610e6161206f565b5b6005600083815260200190815260200160002060010160009054906101000a900460ff166002811115610e9857610e9761206f565b5b14610ed8576040517f08c379a0000000000000000000000000000000000000000000000000000000008152600401610ecf906123c4565b60405180910390fd5b610ef660056000858152602001908152602001600020600201611b45565b915050919050565b8160016002811115610f1357610f1261206f565b5b6005600083815260200190815260200160002060010160009054906101000a900460ff166002811115610f4957610f4861206f565b5b14610f89576040517f08c379a0000000000000000000000000000000000000000000000000000000008152600401610f80906123c4565b60405180910390fd5b82610faa600560008381526020019081526020016000206000015433610a95565b610fe9576040517f08c379a0000000000000000000000000000000000000000000000000000000008152600401610fe090612234565b60405180910390fd5b6110118360056000878152602001908152602001600020600201611b7390919063ffffffff16565b3373ffffffffffffffffffffffffffffffffffffffff168373ffffffffffffffffffffffffffffffffffffffff16857f3b855c56b409b671c7112789d022675eb639d0bcb8896f1b6197c132f799e74660405160405180910390a450505050565b6000600160008473ffffffffffffffffffffffffffffffffffffffff1673ffffffffffffffffffffffffffffffffffffffff16815260200190815260200160002060008373ffffffffffffffffffffffffffffffffffffffff1673ffffffffffffffffffffffffffffffffffffffff16815260200190815260200160002054905092915050565b61111560028081111561110f5761110e61206f565b5b826108af565b50565b6111228282611b73565b5050565b60005b81518110156111695761115683838381518110611149576111486123e4565b5b60200260200101516119c2565b808061116190612413565b915050611129565b505050565b600033905090565b600073ffffffffffffffffffffffffffffffffffffffff168373ffffffffffffffffffffffffffffffffffffffff16036111e5576040517f08c379a00000000000000000000000000000000000000000000000000000000081526004016111dc906124cd565b60405180910390fd5b600073ffffffffffffffffffffffffffffffffffffffff168273ffffffffffffffffffffffffffffffffffffffff1603611254576040517f08c379a000000000000000000000000000000000000000000000000000000000815260040161124b9061255f565b60405180910390fd5b80600160008573ffffffffffffffffffffffffffffffffffffffff1673ffffffffffffffffffffffffffffffffffffffff16815260200190815260200160002060008473ffffffffffffffffffffffffffffffffffffffff1673ffffffffffffffffffffffffffffffffffffffff168152602001908152602001600020819055508173ffffffffffffffffffffffffffffffffffffffff168373ffffffffffffffffffffffffffffffffffffffff167f8c5be1e5ebec7d5bd14f71427d1e84f3dd0314c0f7b2291e5b200ac8c7c3b925836040516113329190611e03565b60405180910390a3505050565b600061134b8484611072565b90507fffffffffffffffffffffffffffffffffffffffffffffffffffffffffffffffff81146113c557818110156113b7576040517f08c379a00000000000000000000000000000000000000000000000000000000081526004016113ae906125cb565b60405180910390fd5b6113c48484848403611176565b5b50505050565b600073ffffffffffffffffffffffffffffffffffffffff168373ffffffffffffffffffffffffffffffffffffffff160361143a576040517f08c379a00000000000000000000000000000000000000000000000000000000081526004016114319061265d565b60405180910390fd5b600073ffffffffffffffffffffffffffffffffffffffff168273ffffffffffffffffffffffffffffffffffffffff16036114a9576040517f08c379a00000000000000000000000000000000000000000000000000000000081526004016114a0906126ef565b60405180910390fd5b6114b4838383611c29565b60008060008573ffffffffffffffffffffffffffffffffffffffff1673ffffffffffffffffffffffffffffffffffffffff1681526020019081526020016000205490508181101561153a576040517f08c379a000000000000000000000000000000000000000000000000000000000815260040161153190612781565b60405180910390fd5b8181036000808673ffffffffffffffffffffffffffffffffffffffff1673ffffffffffffffffffffffffffffffffffffffff16815260200190815260200160002081905550816000808573ffffffffffffffffffffffffffffffffffffffff1673ffffffffffffffffffffffffffffffffffffffff168152602001908152602001600020600082825401925050819055508273ffffffffffffffffffffffffffffffffffffffff168473ffffffffffffffffffffffffffffffffffffffff167fddf252ad1be2c89b69c2b068fc378daa952ba7f163c4a11628f55a4df523b3ef846040516116289190611e03565b60405180910390a361163b848484611c2e565b50505050565b600073ffffffffffffffffffffffffffffffffffffffff168273ffffffffffffffffffffffffffffffffffffffff16036116b0576040517f08c379a00000000000000000000000000000000000000000000000000000000081526004016116a7906127ed565b60405180910390fd5b6116bc60008383611c29565b80600260008282546116ce919061203b565b92505081905550806000808473ffffffffffffffffffffffffffffffffffffffff1673ffffffffffffffffffffffffffffffffffffffff168152602001908152602001600020600082825401925050819055508173ffffffffffffffffffffffffffffffffffffffff16600073ffffffffffffffffffffffffffffffffffffffff167fddf252ad1be2c89b69c2b068fc378daa952ba7f163c4a11628f55a4df523b3ef8360405161177f9190611e03565b60405180910390a361179360008383611c2e565b5050565b600073ffffffffffffffffffffffffffffffffffffffff168273ffffffffffffffffffffffffffffffffffffffff1603611806576040517f08c379a00000000000000000000000000000000000000000000000000000000081526004016117fd9061287f565b60405180910390fd5b61181282600083611c29565b60008060008473ffffffffffffffffffffffffffffffffffffffff1673ffffffffffffffffffffffffffffffffffffffff16815260200190815260200160002054905081811015611898576040517f08c379a000000000000000000000000000000000000000000000000000000000815260040161188f90612911565b60405180910390fd5b8181036000808573ffffffffffffffffffffffffffffffffffffffff1673ffffffffffffffffffffffffffffffffffffffff1681526020019081526020016000208190555081600260008282540392505081905550600073ffffffffffffffffffffffffffffffffffffffff168373ffffffffffffffffffffffffffffffffffffffff167fddf252ad1be2c89b69c2b068fc378daa952ba7f163c4a11628f55a4df523b3ef8460405161194b9190611e03565b60405180910390a361195f83600084611c2e565b505050565b60008260000160008373ffffffffffffffffffffffffffffffffffffffff1673ffffffffffffffffffffffffffffffffffffffff16815260200190815260200160002060006101000a81548160ff0219169083151502179055505050565b600073ffffffffffffffffffffffffffffffffffffffff168173ffffffffffffffffffffffffffffffffffffffff1603611a31576040517f08c379a0000000000000000000000000000000000000000000000000000000008152600401611a289061297d565b60405180910390fd5b60018260000160008373ffffffffffffffffffffffffffffffffffffffff1673ffffffffffffffffffffffffffffffffffffffff16815260200190815260200160002060006101000a81548160ff0219169083151502179055505050565b60008173ffffffffffffffffffffffffffffffffffffffff168360000160009054906101000a900473ffffffffffffffffffffffffffffffffffffffff1673ffffffffffffffffffffffffffffffffffffffff1614905092915050565b60008260000160008373ffffffffffffffffffffffffffffffffffffffff1673ffffffffffffffffffffffffffffffffffffffff16815260200190815260200160002060009054906101000a900460ff16905092915050565b60008160000160009054906101000a900473ffffffffffffffffffffffffffffffffffffffff169050919050565b600073ffffffffffffffffffffffffffffffffffffffff168173ffffffffffffffffffffffffffffffffffffffff1603611be2576040517f08c379a0000000000000000000000000000000000000000000000000000000008152600401611bd990612a0f565b60405180910390fd5b808260000160006101000a81548173ffffffffffffffffffffffffffffffffffffffff021916908373ffffffffffffffffffffffffffffffffffffffff1602179055505050565b505050565b505050565b600081519050919050565b600082825260208201905092915050565b60005b83811015611c6d578082015181840152602081019050611c52565b60008484015250505050565b6000601f19601f8301169050919050565b6000611c9582611c33565b611c9f8185611c3e565b9350611caf818560208601611c4f565b611cb881611c79565b840191505092915050565b60006020820190508181036000830152611cdd8184611c8a565b905092915050565b600080fd5b600073ffffffffffffffffffffffffffffffffffffffff82169050919050565b6000611d1582611cea565b9050919050565b611d2581611d0a565b8114611d3057600080fd5b50565b600081359050611d4281611d1c565b92915050565b6000819050919050565b611d5b81611d48565b8114611d6657600080fd5b50565b600081359050611d7881611d52565b92915050565b60008060408385031215611d9557611d94611ce5565b5b6000611da385828601611d33565b9250506020611db485828601611d69565b9150509250929050565b60008115159050919050565b611dd381611dbe565b82525050565b6000602082019050611dee6000830184611dca565b92915050565b611dfd81611d48565b82525050565b6000602082019050611e186000830184611df4565b92915050565b600080600060608486031215611e3757611e36611ce5565b5b6000611e4586828701611d33565b9350506020611e5686828701611d33565b9250506040611e6786828701611d69565b9150509250925092565b600060ff82169050919050565b611e8781611e71565b82525050565b6000602082019050611ea26000830184611e7e565b92915050565b600060208284031215611ebe57611ebd611ce5565b5b6000611ecc84828501611d69565b91505092915050565b60008060408385031215611eec57611eeb611ce5565b5b6000611efa85828601611d69565b9250506020611f0b85828601611d33565b9150509250929050565b600060208284031215611f2b57611f2a611ce5565b5b6000611f3984828501611d33565b91505092915050565b611f4b81611d0a565b82525050565b6000602082019050611f666000830184611f42565b92915050565b60008060408385031215611f8357611f82611ce5565b5b6000611f9185828601611d33565b9250506020611fa285828601611d33565b9150509250929050565b7f4e487b7100000000000000000000000000000000000000000000000000000000600052602260045260246000fd5b60006002820490506001821680611ff357607f821691505b60208210810361200657612005611fac565b5b50919050565b7f4e487b7100000000000000000000000000000000000000000000000000000000600052601160045260246000fd5b600061204682611d48565b915061205183611d48565b92508282019050808211156120695761206861200c565b5b92915050565b7f4e487b7100000000000000000000000000000000000000000000000000000000600052602160045260246000fd5b7f53656e64657220646f6573206e6f7420686f6c6420726571756972656420726f60008201527f6c65000000000000000000000000000000000000000000000000000000000000602082015250565b60006120fa602283611c3e565b91506121058261209e565b604082019050919050565b60006020820190508181036000830152612129816120ed565b9050919050565b7f4d7573742062652063616c6c6564206f6e20616e20696e697469616c697a656460008201527f2053686172656420726f6c650000000000000000000000000000000000000000602082015250565b600061218c602c83611c3e565b915061219782612130565b604082019050919050565b600060208201905081810360008301526121bb8161217f565b9050919050565b7f43616e206f6e6c792062652063616c6c6564206279206120726f6c65206d616e60008201527f6167657200000000000000000000000000000000000000000000000000000000602082015250565b600061221e602483611c3e565b9150612229826121c2565b604082019050919050565b6000602082019050818103600083015261224d81612211565b9050919050565b7f496e76616c696420726f6c654964000000000000000000000000000000000000600082015250565b600061228a600e83611c3e565b915061229582612254565b602082019050919050565b600060208201905081810360008301526122b98161227d565b9050919050565b7f45524332303a2064656372656173656420616c6c6f77616e63652062656c6f7760008201527f207a65726f000000000000000000000000000000000000000000000000000000602082015250565b600061231c602583611c3e565b9150612327826122c0565b604082019050919050565b6000602082019050818103600083015261234b8161230f565b9050919050565b7f4d7573742062652063616c6c6564206f6e20616e20696e697469616c697a656460008201527f204578636c757369766520726f6c650000000000000000000000000000000000602082015250565b60006123ae602f83611c3e565b91506123b982612352565b604082019050919050565b600060208201905081810360008301526123dd816123a1565b9050919050565b7f4e487b7100000000000000000000000000000000000000000000000000000000600052603260045260246000fd5b600061241e82611d48565b91507fffffffffffffffffffffffffffffffffffffffffffffffffffffffffffffffff82036124505761244f61200c565b5b600182019050919050565b7f45524332303a20617070726f76652066726f6d20746865207a65726f2061646460008201527f7265737300000000000000000000000000000000000000000000000000000000602082015250565b60006124b7602483611c3e565b91506124c28261245b565b604082019050919050565b600060208201905081810360008301526124e6816124aa565b9050919050565b7f45524332303a20617070726f766520746f20746865207a65726f20616464726560008201527f7373000000000000000000000000000000000000000000000000000000000000602082015250565b6000612549602283611c3e565b9150612554826124ed565b604082019050919050565b600060208201905081810360008301526125788161253c565b9050919050565b7f45524332303a20696e73756666696369656e7420616c6c6f77616e6365000000600082015250565b60006125b5601d83611c3e565b91506125c08261257f565b602082019050919050565b600060208201905081810360008301526125e4816125a8565b9050919050565b7f45524332303a207472616e736665722066726f6d20746865207a65726f20616460008201527f6472657373000000000000000000000000000000000000000000000000000000602082015250565b6000612647602583611c3e565b9150612652826125eb565b604082019050919050565b600060208201905081810360008301526126768161263a565b9050919050565b7f45524332303a207472616e7366657220746f20746865207a65726f206164647260008201527f6573730000000000000000000000000000000000000000000000000000000000602082015250565b60006126d9602383611c3e565b91506126e48261267d565b604082019050919050565b60006020820190508181036000830152612708816126cc565b9050919050565b7f45524332303a207472616e7366657220616d6f756e742065786365656473206260008201527f616c616e63650000000000000000000000000000000000000000000000000000602082015250565b600061276b602683611c3e565b91506127768261270f565b604082019050919050565b6000602082019050818103600083015261279a8161275e565b9050919050565b7f45524332303a206d696e7420746f20746865207a65726f206164647265737300600082015250565b60006127d7601f83611c3e565b91506127e2826127a1565b602082019050919050565b60006020820190508181036000830152612806816127ca565b9050919050565b7f45524332303a206275726e2066726f6d20746865207a65726f2061646472657360008201527f7300000000000000000000000000000000000000000000000000000000000000602082015250565b6000612869602183611c3e565b91506128748261280d565b604082019050919050565b600060208201905081810360008301526128988161285c565b9050919050565b7f45524332303a206275726e20616d6f756e7420657863656564732062616c616e60008201527f6365000000000000000000000000000000000000000000000000000000000000602082015250565b60006128fb602283611c3e565b91506129068261289f565b604082019050919050565b6000602082019050818103600083015261292a816128ee565b9050919050565b7f43616e6e6f74206164642030783020746f20612073686172656420726f6c6500600082015250565b6000612967601f83611c3e565b915061297282612931565b602082019050919050565b600060208201905081810360008301526129968161295a565b9050919050565b7f43616e6e6f742073657420616e206578636c757369766520726f6c6520746f2060008201527f3078300000000000000000000000000000000000000000000000000000000000602082015250565b60006129f9602383611c3e565b9150612a048261299d565b604082019050919050565b60006020820190508181036000830152612a28816129ec565b905091905056fea2646970667358221220859cd897953339d398763b9a4d3b2c30938540179eaadc3bff12a04f0aa9239b64736f6c63430008110033a26469706673582212207de430c407e0d50f55cd418ca0494e2e0371f5fbe6e1449b58a670e5f2f0505364736f6c63430008110033",
  "linkReferences": {},
  "deployedLinkReferences": {}
}